:020000020000FC
:040000000C9422003A
:04000C000C947D00D3
:100040000C9488000FEF0DBF28E02EBF789405E0D8
:1000500005BD02EB06BD01E000936E0007E004B9A8
:1000600001E00093680008E100936B000FE007B91E
:100070000CEF0AB908E105B9F2E0E0E0449148B9B3
:10008000709644914BB911275527662777277AF147
:100090002436E9F7222733953230D1F72227332748
:1000A0005930E1F05395299A2A98E0E0E50F449100
:1000B00048B970964491470F4BB90C944800299861
:1000C0002A9AE0E0E60F449148B970964491470FB0
:1000D0004BB901E0009368000C94480055276395E4
:1000E000663011F00C94470066270C944700A894E2
:1000F00021FD0C9453000C945F0083B184FF139591
:1001000083FF1A9500E00093680000933F00189564
:10011000289400913F00239502EB06BD00933F0019
:02012000189530
:1002000007010B0B0D0E0E030F0F0F0C06090E0E40
:100210001C04180C040C1C041C0C141C181C1810B6
:00000001FF
