:020000020000FC
:040000000C9422003A
:04000C000C947D00D3
:100040000C949F000FEF0DBF28E02EBF789405E0C1
:1000500005BD02EB06BD01E000936E0007E004B9A8
:1000600001E00093680008E100936B000FE007B91E
:100070000CEF0AB908E105B9F2E0E0E0449148B9B3
:10008000709644914BB911275527662777277AF147
:100090002436E9F7222733953230D1F72227332748
:1000A0005930E1F0539508E100936B00299A2A98A2
:1000B000E0E0E50F449148B970964491470F4BB981
:1000C0000C94480029982A9AE0E0E60F449148B938
:1000D000709644914BB9470F0C944800552763958F
:1000E000663011F00C94470066270C944700A894E2
:1000F00021FD0C9456000C946200002700936B00C5
:1001000000913F0083B184FF0C94890083FF0C941D
:100110008E001F3031F013950C949100103009F0CF
:100120001A95183018F428980C949700289A712F73
:100130007295770F707ED89A00933F001895289497
:1001400000913F00239502EB06BD00933F001895F8
:1002000007010B0B0D0E0E030F0F0F0C06090E0E40
:100210001C04180C040C1C041C0C141C181C1810B6
:00000001FF
