:020000020000FC
:100000000FEF0DBF18E01EBF00E80093610006E08F
:10001000009361000FE004B90FE207B900EF0AB9DD
:100020000CE00BB900E105B930E040E050E019B157
:1000300026B124FF0C941E000C94420012FF0C9475
:100040002A0013FF0C94360063B164FF0C94620025
:100050000C94170008EC0A95F1F74A9B0C942A00BF
:100060003F3091F3339538B90C9424000AEF0A9588
:10007000F1F74B9B0C943600303031F33A9538B998
:100080000C94240012FF0C944A0013FF0C945600A9
:100090000C9424000AEF0A95F1F74A9B0C944A004D
:1000A0004F3091F2439545B90C9424000AEF0A951C
:1000B000F1F74B9B0C945600403031F24A9545B90C
:1000C0000C942400542F530F5F3039F030F0459AD0
:1000D0005F7052955BB90C94170045980C946800BA
:00000001FF
