:020000020000FC
:040000000C941E003E
:04000C000C943E0111
:04002C000C948101AE
:100038000C9465010FEF0DBF18E01EBF01E000939F
:1000480068000CE100936B0002E000936E0004BDB1
:1000580007E207BD05E005BD02E000936F000DE370
:100068000093890009E0009388000027009380002E
:100078000DE000938100789400270093C1000FE3FE
:1000880007B90FEF0AB903E204B90CE105B940E575
:1000980039E523E258E262E074E298E00027102E86
:1000A800202E302E09E2402E05E0502E08E1602E69
:1000B80093FF0C945C009770F4E0EEE0E80FE49195
:1000C800FF270994F4E0E8E1E90F049108B9EBB8D7
:1000D800953019F093950C945C0099270C945C006A
:1000E800289A923068F0A1F09330C9F0042F90FD5F
:1000F8000C94990002950F700E9439010C946600C7
:10010800022F90FF02950F700E942A010C9466003E
:10011800032F02950F700E942F010C946600032F85
:100128000F700E9434010C9466000F700E94390110
:100138000C946600299A923068F0A1F09330C9F0C7
:10014800072F90FD0C94C30002950F700E9439018F
:100158000C946600052F90FF02950F700E942A01EB
:100168000C946600062F02950F700E942F010C94C4
:100178006600062F0F700E9434010C9466000F7001
:100188000E9439010C9466002D9A923068F0A1F013
:100198009330C9F0042F90FD0C94ED0002950F7078
:1001A8000E9439010C946600012D90FF02950F7092
:1001B8000E942A010C946600022D02950F700E947D
:1001C8002F010C946600022D0F700E9434010C94CC
:1001D80066000F700E9439010C9466002D9A9230C7
:1001E80068F0A1F09330C9F0062D90FD0C9417012A
:1001F80002950F700E9439010C946600042D90FF3F
:1002080002950F700E942A010C946600052D029534
:100218000F700E942F010C946600062F0F700E9429
:1002280034010C9466000F700E9439010C9466002A
:10023800042F0F700E9434010C9466000C945C002B
:100248000C945C000C945C000C945C00F4E0EEE10F
:10025800E00FE4900895F4E0E8E2E00FE4900895F8
:10026800F4E0E2E3E00FE4900895F4E0ECE3E00F5B
:10027800E49008950F931F9300913F000F9303B1EB
:100288000C710C3111F0843030F00F9100933F0065
:100298001F910F91189504FF0C94490103FF0C94CA
:1002A8005A0114E0810F8F700C94490128982998FD
:1002B8002D98833019F083950C94490188270C9464
:1002C80049010F931F9300913F000F939860D7FC4B
:1002D8000C9474010F9100933F001F910F91189592
:1002E8000D2D0F3819F0D3940C946E010027D02EE1
:1002F8000CE100936B000C946E010F931F93009117
:100308003F000F93042F0E94C201402F403681F511
:100318004427032F0E94C201302F303649F5332776
:10032800022F0E94C201202F243211F52227F4E067
:10033800E0E0E60F0491623029F4172F13701030B3
:1003480009F409E2051731F0052F0E94C201502F68
:100358000C94BC0151E06C3019F063950C94BC010D
:1003680061E0072F0E94C201702F703A09F47727C5
:100378000F9100933F001F910F911895102F1F7038
:10038800193029F402950F70039502950895039585
:020398000895C6
:100400000031283130313031313031303100749E9B
:10041000C8F21C2224262800010204081020EB82C6
:10042000D9DAB27A7BC2FBFAED81CEC7A367E7C106
:10043000EFE7ED81DCD5B1757DC1FDF5BD21AEA73E
:0604400033979FA1BFB736
:00000001FF
