:020000020000FC
:040000000C941E003E
:04000C000C94EB0263
:04002C000C944303EA
:100038000C9441030FEF0DBF18E01EBF01E00093C1
:1000480068000CE100936B0002E000936E0004BDB1
:1000580007E207BD05E005BD02E000936F000EE171
:100068000093890005E8009388000027009380002A
:100078000DE000938100789400270093C1000FE3FE
:1000880007B90FEF0AB903E204B90CE105B940E575
:1000980039E523E258E262E074E298E00027102E86
:1000A800202E302E09E2402E05E0502E08E1602E69
:1000B80001E0FF24DD2493FF0C945F009770FCE0BF
:1000C800EEE0E80FE491843014F4FF270994F1E09E
:1000D800099403B10C710C3139F40CE100936B00F5
:1000E8000C9478009530A9F3FCE0E8E1E90F04915D
:1000F80008B9903041F0953031F00D2D0170E00EC7
:10010800EBB80C948A00EBB80C948A00953019F07F
:1001180093950C945F0099270C945F00289A92306D
:1001280068F089F09330A1F0042F90FD0C94B10091
:1001380002950F700E94CE020C947600022F0E9446
:10014800B9020C947600032F0E94C1020C94760029
:10015800032F0E94C8020C9476000F700E94CE02F2
:100168000C9476002D9A923068F089F09330A1F0C3
:10017800072F90FD0C94D50002950F700E94CE02B7
:100188000C947600052F0E94B9020C947600062F75
:100198000E94C1020C947600062F0E94C8020C949B
:1001A80076000F700E94CE020C947600289A2D9A41
:1001B800923068F089F09330A1F0032D90FD0C94F3
:1001C800FA0002950F700E94CE020C947600012D61
:1001D8000E94B9020C947600022D0E94C1020C9470
:1001E8007600022D0E94C8020C9476000F700E94BF
:1001F800CE020C947600289A2D9A923068F089F0F5
:100208009330A1F0062D90FD0C941F0102950F70FC
:100218000E94CE020C947600042D0E94B9020C9420
:100228007600052D0E94C1020C947600052D0E94CF
:10023800C8020C9476000F700E94CE020C947600CF
:10024800D0FE2898D0FC289A1D2D13FD0C949C01F3
:1002580014FD0C945E01923080F0B9F09330E9F00F
:1002680081FF092D81FD032D90FD0C945901029504
:100278000F700E94CE020C94760081FF072D81FD3D
:10028800012D0E94B9020C94760081FF082D81FD92
:10029800022D0E94C1020C94760081FF082D81FD79
:1002A800022D0E94C8020C9476000F700E94CE02A4
:1002B8000C94760012FD0C942F010F2D003059F08C
:1002C8000130C1F0023029F10C942F011D2D1F7E41
:1002D800D12E0C942F0181FF072D81FD012D0E9445
:1002E800D302043209F4002781FF702E81FD102EFD
:1002F8000C946A0181FF082D81FD022D0E94D30212
:10030800003609F4002781FF802E81FD202E0C94F1
:100318006A0181FF092D81FD032D0E94D302003659
:1003280009F4002781FF902E81FD302E0C946A017C
:1003380012FD0C942F010F2D003059F00130D1F02F
:10034800023049F10C942F011D2D177FD12E0C94EA
:100358002F0181FF072D81FD012D003021F00E9422
:10036800DE020C94B80103E281FF702E81FD102E8D
:100378000C94A80181FF082D81FD022D003021F089
:100388000E94DE020C94C90109E581FF802E81FDDF
:10039800202E0C94A80181FF092D81FD032D00302A
:1003A80021F00E94DE020C94DA0103E281FF902E14
:1003B80081FD302E0C94A801D0FE2D98D0FC2D9AEA
:1003C8001D2D13FD0C946A0214FD0C941A02923030
:1003D80080F0B9F09330E9F081FF0C2D81FD062DF6
:1003E80090FD0C94150202950F700E94CE020C9499
:1003F800760081FF0A2D81FD042D0E94B9020C941C
:10040800760081FF0B2D81FD052D0E94C1020C9401
:10041800760081FF0B2D81FD052D0E94C8020C94EA
:1004280076000F700E94CE020C94760012FD0C9498
:10043800EB010F2D023059F00130A9F1003011F114
:100448000C94EB011D2D1F7ED12E0C94EB0181FF26
:100458000A2D81FD042DFCE0E0E081FFEB0D81FD1C
:10046800E50D1491011731F481FF01E081FD0027AA
:100478000C9440020E94D30281FFA02E81FD402EE1
:100488000C94260281FF0C2D81FD062D093919F4E3
:1004980000270C9451020E94D30281FFC02E81FDD7
:1004A800602E0C94260281FF0B2D81FD052D0C304A
:1004B80031F481FF01E081FD00270C94640203956B
:1004C80081FF802E81FD202E0C94260212FD0C94B3
:1004D800EB010030B9F1013011F10F2D023039F084
:1004E8000C94EB011D2D177FD12E0C94EB0181FF8D
:1004F8000A2D81FD042DFCE0E0E081FFEB0D81FD7C
:10050800E50D1491003019F4012F0C948D020E940E
:10051800DE0281FFA02E81FD402E0C94760281FF21
:100528000B2D81FD052D81FF013081FD003019F46F
:100538000CE00C94A002039581FF802E81FD202EF3
:100548000C94760281FF0C2D81FD062D003019F4E4
:1005580009E90C94B1020E94D30281FFC02E81FDEB
:10056800602E0C9476020C945F0090FF02950F7039
:10057800FCE0EEE1E00FE490089502950F70FCE0D6
:10058800E8E2E00FE49008950F70FCE0E2E3E00F8A
:10059800E4900895FCE0ECE3E00FE4900895102F58
:1005A8001F70193029F402950F700395029508956C
:1005B80003950895102F1F70103039F402950F70AD
:1005C8000A95029519E0010F08950A9508950F9369
:1005D8001F9300913F000F9303B10C710C31C1F1CF
:1005E800843008F05CF504FF0C942C0303FF0C9492
:1005F800000302FF0C940C03289829982D9899273A
:10060800833019F083950C942C0388270C942C03C1
:10061800289829982D9814E0810F8F70843021F044
:10062800853039F00C942C03722E832E942E0C9462
:100638002C03A52EB62EC72E0C942C031D2D11703D
:1006480004FF106103FF186002FF0C943503D12EDC
:10065800002700936B000F9100933F001F910F91AB
:1006680018950F2D0395F02E033091F7FF24845031
:10067800272D382D492D0C942C03986018950F932D
:100688001F9300913F000F930D2D03950170D02EFD
:100698000030B1F5042F0E94D302402F403681F577
:1006A8004427032F0E94D302302F303649F53327D1
:1006B800022F0E94D302202F243211F52227FCE0BA
:1006C800E0E0E60F0491623029F4172F1370103020
:1006D80009F409E2051731F0052F0E94D302502FC3
:1006E8000C94840351E06C3019F063950C948403E6
:1006F80061E0072F0E94D302702F703A09F4772720
:0C0708000F9100933F001F910F91189576
:100C0000003128313031303131303130310092B65D
:100C1000DAFF24E024E0B700010204081020DE8897
:100C2000E6ECB87C7EC8FEFCFA42DCD666B6BE5264
:100C3000FEF6DE427C7AE2BABE52FEFAFC903EB686
:060C4000D2E6EEB0FEF664
:00000001FF
