:020000020000FC
:040000000C941E003E
:100038000C941E000FEF0DBF18E01EBF05E005BDB4
:1000480002E004BD00936E000CE907BD789453E606
:100058004BE33BE327E161E072E088E153955436D6
:10006800C9F4552743954C33A9F4442733953C33B9
:1000780089F433272395283169F42227182F137020
:10008800103021F0F2E0E0E00C944D00F2E0ECE0FA
:0E009800E70F149150FD0C9432000C943200CE
:100200001F1C1F1E1F1E1F1F1E1F1E1F1F1D1F1E08
:080210001F1E1F1F1E1F1E1FF1
:00000001FF
