:020000020000FC
:040000000C941E003E
:100038000C94A8000FEF0DBF18E01EBF05E005BD2A
:1000480002E004BD00936E000EE407BD789400271B
:100058000093C1000FE307B90FEF0AB957EC49E560
:1000680039E523E268E272E089E990E897FF0C94A9
:100078003A00092F0F70192F12951770F2E0EEE071
:10008800E00FE491FF270994F2E0E8E1E10FE49042
:10009800E8B8DBB8092F0F70153021F013951295C9
:1000A8000C9457001127010F902F0C943A0012302E
:1000B80068F0A1F01330C9F0042F10FF0C947F00F2
:1000C80002950F700E9499000C944800022F10FFAF
:1000D80002950F700E9494000C944800032F02951B
:1000E8000F700E9499000C944800032F0F700E9413
:1000F8009E000C9448000F700E949E000C944800CB
:100108000C943A000C943A000C943A000C943A007F
:100118000C943A000C943A000C943A000C943A006F
:10012800F2E0EEE1E00FD4900895F2E0E8E2E00FAB
:10013800D4900895F2E0E2E3E00FD4900895F2E05D
:10014800ECE3E00FD49008950F931F9300913F00C4
:100158000F9353959068583CB9F55527042F0E9482
:10016800EE00402F403681F54427032F0E94EE0011
:10017800302F303649F53327022F0E94EE00202F0A
:10018800243211F52227F2E0E0E0E70F0491723003
:1001980029F4182F1370103009F409E2061731F00A
:1001A800062F0E94EE00602F0C94E80061E07C307E
:1001B80019F073950C94E80071E0082F0E94EE0086
:1001C800802F803A09F488270F9100933F001F91F0
:1001D8000F911895102F1F70193029F402950F7080
:0A01E800039502950895039508950C
:1002000000312831303130313130313031005B84D0
:1002100086888A8C8E909200010204081020EB815F
:10022000DAD9B1797BC1FBF9EE28CD6D2B67E72CCC
:10023000EF6FEE82DCD6B2767EC2FEF6BE18AD9DC2
:060240001B97B71CBF9FD5
:00000001FF
