:020000020000FC
:040000000C941E003E
:100038000C9437000FEF0DBF18E01EBF05E005BD9B
:1000480002E004BD00936E000CE907BD789453E606
:100058004BE33BE327E16EE174E088E150FD0C944B
:1000680032000C9432005395543619F555274395B0
:100078004C33F9F4442733953C33D9F4332723958B
:100088002831B9F42227F2E0E0E0E70F049172305A
:1000980029F4182F1370103009F40DE1061719F020
:1000A80063950C945D0061E073957D3011F471E007
:0400B800839518957F
:0E020000001F1C1F1E1F1E1F1F1E1F1E1F0083
:00000001FF
