:020000020000FC
:040000000C941E003E
:04000C000C947B02D3
:04002C000C94180315
:100038000C94FF020FEF0DBF18E01EBF01E0009304
:1000480068000CE100936B0002E000936E0004BDB1
:1000580007E207BD05E005BD02E000936F000EE171
:100068000093890005E8009388000027009380002A
:100078000DE000938100789400270093C1000FE3FE
:1000880007B90FEF0AB903E204B90CE105B940E575
:1000980039E523E258E262E074E298E00027102E86
:1000A800202E302E09E2402E05E0502E08E1602E69
:1000B80001E0FF24DD2493FF0C945F009770FCE0BF
:1000C800EEE0E80FE491843014F4FF270994F1E09E
:1000D800099403B10C710C3139F40CE100936B00F5
:1000E8000C9478009530A9F3FCE0E6E1E90F04915F
:1000F80008B9903041F0953031F00D2D0170E00EC7
:10010800EBB80C948A00EBB80C948A00953019F07F
:1001180093950C945F0099270C945F00289A92306D
:1001280068F089F09330A1F0042F90FD0C94B10091
:1001380002950F700E945E020C947600022F0E94B6
:1001480049020C947600032F0E9451020C94760009
:10015800032F0E9458020C9476000F700E945E02D2
:100168000C947600299A923068F089F09330A1F0C7
:10017800072F90FD0C94D50002950F700E945E0227
:100188000C947600052F0E9449020C947600062FE5
:100198000E9451020C947600062F0E9458020C947B
:1001A80076000F700E945E020C947600289A299AB5
:1001B800923068F089F09330A1F0032D90FD0C94F3
:1001C800FA0002950F700E945E020C947600012DD1
:1001D8000E9449020C947600022D0E9451020C9450
:1001E8007600022D0E9458020C9476000F700E942F
:1001F8005E020C947600289A299A923068F089F069
:100208009330A1F0062D90FD0C941F0102950F70FC
:100218000E945E020C947600042D0E9449020C9400
:100228007600052D0E9451020C947600052D0E943F
:1002380058020C9476000F700E945E020C947600AF
:10024800D0FE2898D0FC289A1D2D13FD0C947E0111
:1002580014FD0C945201923068F089F09330A1F0AB
:10026800092D90FD0C944D0102950F700E945E02BD
:100278000C947600072D0E9449020C947600082DF4
:100288000E9451020C947600082D0E9458020C948A
:1002980076000F700E945E020C94760012FD0C949A
:1002A8002F010F2D003059F0013091F00230C9F0C4
:1002B8000C942F011D2D1F7ED12E0C942F01072D7C
:1002C8000E946302043209F40027702E0C945E0128
:1002D800082D0E946302003609F40027802E0C9432
:1002E8005E01092D0E946302003609F40027902E52
:1002F8000C945E0112FD0C942F010F2D003059F063
:100308000130A1F00230E9F00C942F011D2D177F68
:10031800D12E0C942F01072D003021F00E946E027F
:100328000C94970103E2702E0C948A01082D00307A
:1003380021F00E946E020C94A20109E5802E0C9413
:100348008A01092D003021F00E946E020C94AD0143
:1003580009E5902E0C948A01D0FE2998D0FC299AA0
:100368001D2D13FD0C94130214FD0C94DE01923024
:1003780068F089F09330A1F00C2D90FD0C94D90110
:1003880002950F700E945E020C9476000A2D0E945E
:1003980049020C9476000B2D0E9451020C947600B1
:1003A8000B2D0E9458020C9476000F700E945E027A
:1003B8000C94760012FD0C94BB010F2D003059F0FF
:1003C800013019F1023091F00C94BB011D2D1F7EF4
:1003D800D12E0C94BB010C2D093919F400270C946B
:1003E800F7010E946302C02E0C94EA010A2DFCE07A
:1003F800E0E0EB0D1491011719F401E00C940602EA
:100408000E946302A02E0C94EA010B2D0C3019F403
:1004180001E00C9410020395B02E0C94EA0112FD31
:100428000C94BB010F2D0030D1F0013019F10230CE
:1004380039F00C94BB011D2D177FD12E0C94BB01F4
:100448000A2DFCE0E0E0EB0D1491003019F4012FC7
:100458000C9430020E946E02A02E0C941F020C2DE8
:10046800003019F409E90C943B020E946E02C02E78
:100478000C941F020B2D003019F409E90C94460264
:100488000E946E02B02E0C941F0290FF02950F700E
:10049800FCE0ECE1E00FE490089502950F70FCE0B9
:1004A800E6E2E00FE49008950F70FCE0E0E3E00F6F
:1004B800E4900895FCE0EAE3E00FE4900895102F3B
:1004C8001F70193029F402950F700395029508954D
:1004D80003950895102F1F70103039F402950F708E
:1004E8000A95029519E0010F08950A9508950F934A
:1004F8001F9300913F000F9303B10C710C3129F049
:10050800843028F004F40C94C4020C94CE0204FF46
:100518000C94CE0203FF0C94940202FF0C94A002E8
:10052800289829982D989927833019F083950C9449
:10053800CE0288270C94CE02289829982D9814E08A
:10054800810F8F70843041F0853059F0863071F01A
:10055800873089F00C94CE02722E832E942E0C9440
:10056800CE02A52EB62EC72E0C94CE02712C822C4C
:10057800932C0C94CE02A42CB52CC62C0C94CE0231
:100588001D2D117004FF106103FF1860D12E02FFAA
:100598000C94D702002700936B000F9100933F0043
:1005A8001F910F9118950F2D0395F02E033090F39E
:1005B800FF24843041F0853061F0863081F0873047
:1005C800A1F00C94CE02272D382D492D84500C947F
:1005D800CE025A2D6B2D7C2D84500C94CE02172CF4
:1005E800282C392C84500C94CE024A2C5B2C6C2C71
:1005F80084500C94CE029860D7FC0C940403189590
:100608000F931F9300913F000F9303942D9A002D91
:100618000E3F21F42D980D2D0F77D02E0F910093BA
:100628003F001F910F9118950F931F9300913F0062
:100638000F930D2D03950170D02E0030B1F5042FC6
:100648000E946302402F403681F54427032F0E9401
:100658006302302F303649F53327022F0E94630298
:10066800202F243211F52227FCE0E0E0E60F049168
:10067800623029F4172F1370103009F409E20517B6
:1006880031F0052F0E946302502F0C94590351E05A
:100698006C3019F063950C94590361E0072F0E94A0
:1006A8006302702F703A09F47727121639F423166B
:1006B80029F4341619F40D2D0068D02E0F910093EB
:0806C8003F001F910F911895EE
:100C0000003128313031303131303130310092B65D
:100C1000DAFF24B024B0010204081020DE88E6ECDC
:100C2000B87C7EC8FEFCFA42DCD666B6BE52FEF642
:100C3000DE427C7AE2BABE52FEFAFC903EB6D2E6C2
:040C4000EEB0FEF61E
:00000001FF
