:020000020000FC
:040000000C941E003E
:04000C000C94DE0072
:04002C000C94E3004D
:100038000C94E1000FEF0DBF18E01EBF01E0009324
:1000480068000CE100936B0002E000936E0004BDB1
:1000580007E207BD05E005BD02E000936F000DE370
:100068000093890009E0009388000027009380002E
:100078000DE000938100789400270093C1000FE3FE
:1000880007B90FEF0AB903E004B90CE105B940E577
:1000980039E523E258E262E074E298E093FF0C94B9
:1000A80052009770F2E0EEEAE80FE491FF27099416
:1000B800F2E0E8EBE90FE490E8B8DBB8953019F026
:1000C80093950C94520099270C945200923068F042
:1000D800A1F09330C9F0042F90FD0C948E00029586
:1000E8000F700E94D9000C945C00022F90FF0295BB
:1000F8000F700E94CA000C945C00032F02950F70C9
:100108000E94CF000C945C00032F0F700E94D40053
:100118000C945C000F700E94D9000C945C00923023
:1001280068F0A1F09330C9F0072F90FD0C94B70048
:1001380002950F700E94D9000C945C00052F90FF67
:1001480002950F700E94CA000C945C00062F02955D
:100158000F700E94CF000C945C00062F0F700E9455
:10016800D4000C945C000F700E94D9000C945C00C1
:100178000C9452000C9452000C9452000C945200AF
:100188000C9452000C9452000C945200F2E0EEEBE6
:10019800E00FD4900895F2E0E8ECE00FD4900895D1
:1001A800F2E0E2EDE00FD4900895F2E0ECEDE00F1C
:1001B800D49008952A99289A1895986018950F93BD
:1001C8001F9300913F000F93042F0E942401402F9A
:1001D800403681F54427032F0E942401302F303602
:1001E80049F53327022F0E942401202F243211F5CC
:1001F8002227F2E0E0EAE60F0491623029F4172F93
:100208001370103009F409E2051731F0052F0E9428
:100218002401502F0C941E0151E06C3019F06395A5
:100228000C941E0161E0072F0E942401702F703A80
:1002380009F477270F9100933F001F910F911895AC
:10024800102F1F70193029F402950F70039502952D
:06025800089503950895CE
:1002A00000312831303130313130313031006A9312
:1002B000BCBEC0C2C4C6C800010204081020EB8244
:1002C000D9DAB27A7BC2FBFAED81CEC7A367E7C168
:1002D000EFE7ED81DCD5B1757DC1FDF5BD21AEA7A0
:0602E00033979FA1BFB798
:00000001FF
