:020000020000FC
:040000000C941E003E
:04000C000C945101FE
:04002C000C94970198
:100038000C9495010FEF0DBF18E01EBF01E000936F
:1000480068000CE100936B0002E000936E0004BDB1
:1000580007E207BD05E005BD02E000936F000DE370
:100068000093890009E0009388000027009380002E
:100078000DE000938100789400270093C1000FE3FE
:1000880007B90FEF0AB903E204B90CE105B940E575
:1000980039E523E258E262E074E298E00027102E86
:1000A800202E302E09E2402E05E0502E08E1602E69
:1000B80001E0F02E93FF0C945E009770FCE0EEE0F8
:1000C800E80FE491843014F4FF270994F1E00994CF
:1000D800FCE0E8E1E90F049108B9EBB80C9474006E
:1000E800953019F093950C945E0099270C945E0056
:1000F800289A923068F089F09330A1F0042F90FD8F
:100108000C949B0002950F700E944C010C946C009B
:10011800022F0E9437010C946C00042F0E944601A4
:100128000C946C00042F0E943F010C946C000F701B
:100138000E944C010C946C00299A923068F089F066
:100148009330A1F0072F90FD0C94BF0002950F701B
:100158000E944C010C946C00052F0E9437010C94EE
:100168006C00062F0E943F010C946C00062F0E9421
:1001780046010C946C000F700E944C010C946C00AA
:100188002D9A923068F089F09330A1F0032D90FDFC
:100198000C94E30002950F700E944C010C946C00C3
:1001A800012D0E9437010C946C00022D0E943F0122
:1001B8000C946C00022D0E9446010C946C000F7088
:1001C8000E944C010C946C002D9A923068F089F0D2
:1001D8009330A1F0062D90FD0C94070102950F7045
:1001E8000E944C010C946C00042D0E9437010C9461
:1001F8006C00052D0E943F010C946C00052D0E9497
:1002080046010C946C000F700E944C010C946C0019
:10021800923068F089F09330A1F0092D90FD0C948C
:100228002A0102950F700E944C010C946C00072D56
:100238000E9437010C946C00082D0E943F010C9419
:100248006C00082D0E9446010C946C000F700E94EF
:100258004C010C946C000C945E000C945E000C94A1
:100268005E000C945E0090FF02950F70FCE0EEE1DA
:10027800E00FE490089502950F70FCE0E8E2E00FCB
:10028800E49008950F70FCE0E2E3E00FE490089535
:10029800FCE0ECE3E00FE49008950F931F930091C6
:1002A8003F000F9303B10C710C3191F1843008F0C9
:1002B80064F504FF0C948C0103FF0C94660102FFA3
:1002C8000C947301289829982D98833029F08395E8
:1002D80000E8D02E0C948C0188270C948C01289867
:1002E80029982D9814E0810F8F70843021F0853083
:1002F80039F00C948C01722E832E942E0C948C0160
:10030800A52EB62EC72E0C948C0104FF0C949201D6
:100318000F9100933F001F910F91189584500C94F2
:100328008C01986018950F931F9300913F000F93CD
:10033800042F0E94D801402F403681F54427032F0F
:100348000E94D801302F303649F53327022F0E94FA
:10035800D801202F243211F52227FCE0E0E0E60F37
:100368000491623029F4172F1370103009F409E250
:10037800051731F0052F0E94D801502F0C94D20197
:1003880051E06C3019F063950C94D20161E0072FAD
:100398000E94D801702F703A09F477270F910093C3
:1003A8003F001F910F911895102F1F70193029F4D5
:0E03B80002950F700395029508950395089520
:100C000000312831303130313130313031007CA089
:100C1000C4E80C2F31333500010204081020DE88AF
:100C2000E6ECB87C7EC8FEFCFA28DCBC2EB6F6A842
:100C3000FEBEDE847CBCA6BAFA8CFEBEFC903EB63C
:060C4000D2E6EEB0FEF664
:00000001FF
