:020000020000FC
:100000000FEF0DBF18E01EBF0FE007B90CEF0AB9E4
:1000100001E204B908E105B90E947D0050E1F2E077
:10002000E0E0649168B9E50F64916BB92227442739
:1000300033B134FF0C943B0033FF0C944F0005B3F5
:100040000130B1F704E606BDA89A1395143681F77E
:100050001127813011F42D9888270E9466000C9496
:100060001800E0E0E40F649168B9E50F64910E9424
:100070006B000C94180005B30130E9F704E606BDE7
:10008000A89A1395143619F411270E9466001C9B38
:100090000C943B004F3069F343950C94310005B349
:1000A0000130E9F704E606BDA89A1395143619F451
:1000B00011270E9466001B9B0C944F004030C9F230
:1000C0004A950C94310020E00C946B00241779F0D1
:1000D0002F30C9F32395722F7295770F707E760FAC
:1000E0007BB9283010F0289A089528980895112790
:1000F000222781602D9A0C946B0005E005BD04E673
:0401000006BD08959B
:1002000007010B0B0D0E0E030F0F0F0C06090E0E40
:100210001C04180C040C1C041C0C141C181C1810B6
:00000001FF
